S01E0000737169616E3030335F637573746F6D70726F6A6563742E7372656366
S11300004EC0000069C0000067C0000065C0000069
S113001063C0000061C000005FC000005DC000005C
S11300205BC0000059C0000057C0000055C000006C
S113003053C000002DC100004FC000004DC000009F
S11300404BC0000049C0000047C0000045C000008C
S113005043C0000041C000003FC000003DC000009C
S11300603BC0000039C0000037C0000035C00000AC
S113007033C0000031C000002FC000002DC00000BC
S11300802BC0000029C0000027C00000CC01D00113
S1130090EF01F70131023F026D029B02C3021124FA
S11300A01FBECFEFD0E4DEBFCDBF11E0A0E0B1E0D2
S11300B0E6EAF8E000E00BBF02C007900D92A23C14
S11300C0B107D9F721E0A2ECB1E001C01D92A93E2D
S11300D0B207E1F748D3E5C393CF8FEE88B90000A8
S11300E0309B29C0319B29C0329B29C0339B29C036
S11300F08FED88B90000309B26C0319B26C0329B0F
S113010026C0339B26C08FEB88B90000309B23C0E8
S1130110319B23C0329B23C0339B23C08FE788B914
S11301200000309B20C0319B20C0329B20C0339BF9
S113013020C080E0089584E4089583E2089580E374
S113014008958AE2089583E4089589E3089588E38D
S1130150089587E3089582E4089586E3089585E386
S1130160089584E3089581E4089583E3089582E380
S1130170089581E30895181619065CF008950000A7
S113018021503109E1F74F5F5F4F8417950719F448
S1130190089540E050E027E033E0F1CF2E988BB98A
S11301A02F9A00002F9882E090E0E5CF089581E037
S11301B0F5CF0895813118F48158F0CF0895815511
S11301C0EDCF089584E690E0D6DF88E3E7DF86E0AC
S11301D0E5DF8FE0E3DF81E0E1DF8AE090E0CBCF91
S11301E008952E9A8BB92F9A00002F9881E090E001
S11301F0C2CF08950F931F93CF93DF93182FEB0172
S1130200D6DF8881882351F001E0010F812FD2DFEE
S11302108991E7DF102F88818111F6CFDF91CF918B
S11302201F910F91089560930501709306018093C7
S11302300701909308016093DA017093DB018093C6
S1130240DC019093DD0108958BE0809381008DE7BC
S113025090E0909389008093880082E080936F00FF
S113026010928500109284008091050190910601FE
S1130270A0910701B09108018093DA019093DB010A
S1130280A093DC01B093DD018FB780688FBF089520
S11302901F920F920FB60F9211248F939F93AF93D7
S11302A0BF938091DA019091DB01A091DC01B091C0
S11302B0DD010197A109B1098093DA019093DB0173
S11302C0A093DC01B093DD01892B8A2B8B2B99F44D
S11302D081E08093DE018091050190910601A09157
S11302E00701B09108018093DA019093DB01A09398
S11302F0DC01B093DD01BF91AF919F918F910F907D
S11303000FBE0F901F901895EAE7F0E08081806E91
S113031080830895139A11981092CF0141E050E020
S113032012989A010090CF0102C0220F331F0A9441
S1130330E2F7282311F0109A01C01098129A9091B4
S1130340CF019F5F9093CF01983050F3119A089595
S11303500F931F93CF93DF938C01862F880F880F01
S1130360880F805C1BDFE801085F1F4F899139DF2C
S1130370C017D107D9F7DF91CF911F910F9108953D
S1130380E091E2018E2F90E08930910508F0FEC0E3
S1130390FC01EA5BFF4F66C281E08093E2010895AD
S11303A09CDE8093E0019091D101943020F082E0B2
S11303B08093E2010895882371F013DF8091D101C5
S11303C090E06091E0018B5F9F4F5DD28091D101FD
S11303D08F5F8093D10181E08093E201089561E011
S11303E089E090E050D283E08093E201089561E1D6
S11303F071E081E0FFDE71DE8093E6019091D0012F
S11304009430A8F062E271E081E0F4DE88EF82DFEC
S11304102FEB86EC9DE2215080409040E1F700C034
S1130420000080E077DF84E08093E2010895882370
S113043009F4ACC081E1890FBDDE8091E601D1DE13
S11304408091D00190E06091E601805090401BD2F1
S11304508091D0018F5F8093D00183E08093E2018B
S1130460089563E371E081E0C5DE81E1A3DE67E422
S113047071E081E0BFDE86E08093E201089587E0C9
S113048080937C0080917800909179009093D901B9
S11304908093D80122DE8093E3018332D1F08091EE
S11304A0D8019091D901811522E0920730F480910E
S11304B0D4018F5F8093D40108C08130924028F02A
S11304C08091D5018F5F8093D50185E08093E2010F
S11304D0089587E08093E201089586E080937C008C
S11304E080917800909179009093D7018093D60100
S11304F0F4DD8093E3018332D1F08091D6019091B1
S1130500D701811522E0920730F48091D3018F5FE7
S11305108093D30108C08130924028F08091D201A9
S11305208F5F8093D20186E08093E201089587E093
S11305308093E20108959091D5018091040198136C
S11305401AC09091D40180910301981314C0909122
S1130550D3018091020198130EC09091D201809131
S11305600101981308C066E571E081E043DE88E08C
S11305708093E201089566E671E081E03BDE88E065
S11305808093E20108958091D4012BCE0895CF93F6
S11305908091E7018130C9F038F0823009F484C0D9
S11305A0833009F4B8C0DDC02FEB86EC9DE2215006
S11305B080409040E1F700C0000069E771E081E00D
S11305C019DE81E08093E701CCC080910001813085
S11305D011F583DD8093E8019091CE01943020F0F1
S11305E082E08093E701BDC0882389F081E1890F0F
S11305F0E1DD8AE2F6DD8091CE01E82FF0E0EE53F2
S1130600FE4F9091E80190838F5F8093CE0181E04B
S11306108093E701A6C0823011F55FDD8093DF018E
S11306209091CD01943020F082E08093E70199C04D
S1130630882389F081E1890FBDDD8AE2D2DD8091D2
S1130640CD01E82FF0E0EE53FE4F9091DF0190834F
S11306508F5F8093CD0181E08093E70182C0833076
S113066009F07FC03ADD8093E5019091CC0194308C
S113067020F082E08093E70174C0882389F081E14F
S1130680890F98DD8AE2ADDD8091CC01E82FF0E09E
S1130690EE53FE4F9091E50190838F5F8093CC01E0
S11306A081E08093E7015DC0C091C20180E090E0E9
S11306B0E2D0C81328C0C091C30181E090E0DBD030
S11306C0C81321C0C091C40182E090E0D4D0C81303
S11306D01AC0C091C50183E090E0CDD0C81313C007
S11306E068E871E081E086DD88EF14DE2FEB86ECAC
S11306F09DE2215080409040E1F700C0000084E07A
S11307008093E7012EC069E971E081E073DD83E045
S11307108093E70126C080910001833030F48F5F1D
S1130720809300011092E7011CC02FEB86EC9DE240
S1130730215080409040E1F700C0000064E771E080
S113074081E058DD2FEB86EC9DE221508040904003
S1130750E1F700C000002BDD1092000184E08093DB
S1130760E701CF910895CF93DF93CDB7DEB72897F4
S11307700FB6F894DEBF0FBECDBF80EF87B98FE010
S113078088B98FEF84B915B88AB91BB881B912B882
S113079088E0E9E0F1E0DE01119601900D928A957E
S11307A0E1F752DD6CE271E080E090E03CDDACDD2D
S11307B009DD88E3F3DC81E0F1DC86E0EFDC8CE04A
S11307C0EDDC89E090E057D08093CB01813029F0B3
S11307D069EA71E081E00EDD31C068EB71E081E02F
S11307E009DD61E070E0CE010196B2DD88E8D6DC77
S11307F081E0F7DC85E090E03ED007EC11E0F80101
S1130800808386E090E037D0F801818387E090E030
S113081032D0F801828388E090E02DD0F801838300
S11308208BE0C8DCF8018081DCDCF8018181D9DC53
S1130830F8018281D6DCF8018381D3DC81E18093E5
S1130840E401B8DC07EC11E08091DE018823E1F3D8
S11308501092DE01F8018481813011F091DDF4CF32
S113086096DEF2CFEE0FFF1F0024001C0BBE079094
S1130870F691E02D0994F999FECF92BD81BDF89AC5
S1130880992780B50895262FF999FECF1FBA92BDF6
S113089081BD20BD0FB6F894FA9AF99A0FBE01965D
S10908A00895F894FFCF57
S11308A60103010201010000000E0E04041F040AE4
S11308B60A4372656174652050617373776F72645D
S11308C63A0050617373776F726420437265617482
S11308D665640056657269667920796F7527726555
S11308E62068756D616E0031552C2032442C203100
S11308F64C2C2033520048756D616E205665726922
S1130906666965642100426F742044657465637486
S1130916656421204279652100456E746572205014
S1130926617373776F72640050617373776F726467
S113093620436F72726563740050617373776F72CC
S1130946642077726F6E672100456E746572205558
S11309567365726E616D650057656C636F6D6520B6
S105096620006B
S9030000FC
