S01E0000737169616E3030335F637573746F6D70726F6A6563742E7372656366
S113000055C0000070C000006EC000006CC000004D
S11300106AC0000068C0000066C0000064C0000040
S113002062C0000060C000005EC000005CC0000050
S11300305AC0000034C1000056C0000054C0000083
S113004052C0000050C000004EC000004CC0000070
S11300504AC0000048C0000046C0000044C0000080
S113006042C0000040C000003EC000003CC0000090
S11300703AC0000038C0000036C0000034C00000A0
S113008032C0000030C000002EC00000ED01F101BC
S11300901002180252028C02A002D202040341038D
S11300A05203C1030B042D045C04920411241FBEEB
S11300B0CFEFD0E4DEBFCDBF12E0A0E0B1E0E8EFC7
S11300C0FAE000E00BBF02C007900D92AC31B1071B
S11300D0D9F722E0ACE1B2E001C01D92AF34B2071F
S11300E0E1F748D407C58CCF8FEE88B90000309B68
S11300F029C0319B29C0329B29C0339B29C08FED75
S113010088B90000309B26C0319B26C0329B26C094
S1130110339B26C08FEB88B90000309B23C0319BF2
S113012023C0329B23C0339B23C08FE788B90000D0
S1130130309B20C0319B20C0329B20C0339B20C009
S113014080E0089584E4089583E2089580E30895A7
S11301508AE2089583E4089589E3089588E308957D
S113016087E3089582E4089586E3089585E3089576
S113017084E3089581E4089583E3089582E3089570
S113018081E30895181619065CF0089500002150C3
S11301903109E1F74F5F5F4F8417950719F408950C
S11301A040E050E027E033E0F1CF2E988BB92F9A4E
S11301B000002F9882E090E0E5CF089581E0F5CF2C
S11301C00895813118F48158F0CF08958155EDCF09
S11301D0089584E690E0D6DF88E3E7DF86E0E5DF94
S11301E08FE0E3DF81E0E1DF8AE090E0CBCF0895A8
S11301F02E9A8BB92F9A00002F9881E090E0C2CFFD
S113020008950F931F93CF93DF93182FEB01D6DF3D
S11302108881882351F001E0010F812FD2DF899179
S1130220E7DF102F88818111F6CFDF91CF911F91E5
S11302300F9108956093050170930601809307015F
S11302409093080160933D0270933E0280933F02B5
S11302509093400208958BE0809381008DE790E0B5
S1130260909389008093880082E080936F001092BD
S11302708500109284008091050190910601A0915F
S11302800701B091080180933D0290933E02A09330
S11302903F02B09340028FB780688FBF08951F92CA
S11302A00F920FB60F9211248F939F93AF93BF9326
S11302B080913D0290913E02A0913F02B091400294
S11302C00197A109B10980933D0290933E02A09346
S11302D03F02B0934002892B8A2B8B2B99F481E047
S11302E0809341028091050190910601A09107013C
S11302F0B091080180933D0290933E02A0933F0287
S1130300B0934002BF91AF919F918F910F900FBE18
S11303100F901F901895EAE7F0E08081806E80834B
S11303200895883060F0ECE7F0E0808180838FE00E
S113033000008150E9F78FE080931C0208958093B8
S11303407C00F5CFEAE7F0E08081806480838081DF
S113035084FFFDCF08952B9A29981092300241E032
S113036050E02A989A010090300202C0220F331FF5
S11303700A94E2F7282311F0289A01C028982A9AAF
S1130380909130029F5F90933002983050F3299AF5
S113039008950F931F93CF93DF938C01862F880FBB
S11303A0880F880F805C01DFE801085F1F4F899187
S11303B01FDFC017D107D9F7DF91CF911F910F919C
S11303C00895E09145028E2F90E08930910508F060
S11303D04AC1FC01EA5BFF4F5CC381E080934502A4
S11303E0089582DE8093430290913202943020F08B
S11303F082E0809345020895882371F0F9DE8091AC
S1130400320290E060914302875F9F4F65D38091F1
S113041032028F5F8093320281E080934502089517
S113042061E08DE090E058D383E080934502089525
S113043061E171E081E0E5DE57DE80934A0290914C
S113044031029430A8F062E271E081E0DADE88EFF4
S113045082DF2FEB86EC9DE2215080409040E1F753
S113046000C0000080E077DF84E0809345020895B7
S1130470882309F4F8C081E1890FA3DE80914A0240
S1130480B7DE8091310290E060914A028C5F9F4F09
S113049023D3809131028F5F8093310283E0809374
S11304A04502089563E371E081E0ABDE1DDE8093D5
S11304B04602909133029330A8F06FE371E081E03B
S11304C0A0DE88EF48DF2FEB86EC9DE221508040D0
S11304D09040E1F700C0000080E03DDF85E08093BC
S11304E045020895882309F4BEC081E1890F69DEBD
S11304F0809146027DDE8091330290E06091460255
S113050080509040E9D2809133028F5F8093330210
S113051084E08093450208956BE471E081E071DE2C
S11305202FEB86EC9DE2215080409040E1F700C023
S1130530000068E571E081E064DE86E080934502B6
S1130540D3DD80934702833249F180E0EADEFADEAC
S1130550809178009091790090933B0280933A02C5
S11305608D3B22E0920750F064E671E081E049DEC1
S1130570809137028F5F809337020CC08E35914093
S113058048F467E671E081E03CDE809136028F5FDB
S11305908093360287E080934502089588E0809333
S11305A045020895A1DD80934702833249F181E039
S11305B0B8DEC8DE8091780090917900909339027A
S11305C0809338028D3B22E0920750F06CE671E094
S11305D081E017DE809135028F5F809335020CC075
S11305E08E35914048F461E771E081E00ADE809144
S11305F034028F5F8093340286E08093450208952D
S113060088E0809345020895909137028091040117
S113061098131EC09091360280910301981318C05C
S11306209091350280910201981312C09091340286
S11306308091010198130CC067E771E081E0E1DD6E
S113064060E08EE090E048D289E08093450208950E
S113065067E871E081E0D5DD61E08EE090E03CD2B6
S113066089E0809345020895CF93E0914C028E2F48
S113067090E08730910508F07BC1FC01E15BFF4FFE
S113068008C22FEB86EC9DE2215080409040E1F7B8
S113069000C0000060E971E081E0B3DD81E0809397
S11306A04C0266C180910001813011F51DDD8093FB
S11306B04D0290912F02943020F082E080934C02FE
S11306C057C1882389F081E1890F7BDD8AE290DDBF
S11306D080912F02E82FF0E0EF5DFD4F90914D02E5
S11306E090838F5F80932F0281E080934C0240C1FE
S11306F0823011F5F9DC8093420290912E029430FD
S113070020F082E080934C0233C1882389F081E198
S1130710890F57DD8AE26CDD80912E02E82FF0E02C
S1130720EF5DFD4F9091420290838F5F80932E0284
S113073081E080934C021CC1833009F019C1D4DCE0
S11307408093490290912D02943020F082E08093AE
S11307504C020EC1882389F081E1890F32DD8AE2DF
S113076047DD80912D02E82FF0E0EF5DFD4F909181
S1130770490290838F5F80932D0281E080934C0225
S1130780F7C0C091210284E090E08CD1C8132AC044
S1130790C091220285E090E085D1C81323C0C091A6
S11307A0230286E090E07ED1C8131CC0C0912402CD
S11307B087E090E077D1C81315C06FE971E081E05C
S11307C020DD88EFC8DD2FEB86EC9DE221508040D0
S11307D09040E1F700C0000080E0BDDD87E0809339
S11307E04C02C6C0809100018F5F80930001843069
S11307F038F460EC71E081E004DD10924C02B8C082
S1130800843009F0B5C060ED71E081E0FADC83E08A
S113081080934C02ADC068DC80934B0290912C0213
S1130820933020F084E080934C02A2C0882389F0A6
S113083081E1890FC6DC8AE2DBDC80912C02E82F9F
S1130840F0E0E35EFD4F90914B0290838F5F8093C5
S11308502C0283E080934C028BC0C0911D0280E087
S113086090E020D1C81316C0C0911E0281E090E030
S113087019D1C8130FC0C0911F0282E090E012D1B9
S1130880C81308C06AED71E081E0BBDC85E08093A9
S11308904C026EC069EE71E081E0B3DC2FEB86ECB4
S11308A09DE2215080409040E1F700C0000086DCCA
S11308B089E080934C025CC017DC80934E029091D7
S11308C02B029430A8F064EF71E081E09ADC88EFA9
S11308D042DD2FEB86EC9DE2215080409040E1F711
S11308E000C0000080E037DD87E08093450240C00F
S11308F0882309F43DC081E1890F63DC80914E02B5
S113090077DC80912B0290E060914E028C5F9F4FC8
S1130910D1D080912B028F5F80932B0285E080934E
S1130920450226C080910001833030F48F5F8093AC
S1130930000110924C021CC02FEB86EC9DE221506A
S113094080409040E1F700C000006FEE71E081E06C
S113095058DC2FEB86EC9DE2215080409040E1F77B
S113096000C000002BDC1092000187E080934C0251
S1130970CF910895CF93DF93CDB7DEB728970FB605
S1130980F894DEBF0FBECDBF80EF87B98FE088B982
S11309908FEF84B915B88AB91BB811B882B988E049
S11309A0E9E0F1E0DE01119601900D928A95E1F7FC
S11309B052DC6CE271E080E090E03CDC80E090E0AE
S11309C0CADCA9DC06DC88E3F0DB81E0EEDB86E050
S11309D0ECDB8CE0EADB8DE090E064D0182F8093B0
S11309E02A028EE090E05ED080933C02113009F040
S11309F034C0811132C063E072E081E002DC61E066
S1130A0070E0CE010196C5DC88E8CFDB81E0F0DB45
S1130A1089E090E047D006E212E0F80180838AE0A2
S1130A2090E040D0F80181838BE090E03BD0F80166
S1130A3082838CE090E036D0F80183838BE0C1DBC5
S1130A40F8018081D5DBF8018181D2DBF801828154
S1130A50CFDBF8018381CCDB04C06DE072E081E080
S1130A60D0DB81E180934802ACDB06E212E08091A6
S1130A7041028823E1F310924102F801848181301C
S1130A8031F480913C02811102C0EEDDF0CF99DC9B
S1130A90EECFEE0FFF1F0024001C0BBE0790F69153
S1130AA0E02D0994F999FECF92BD81BDF89A99275A
S1130AB080B50895262FF999FECF92BD81BDF89A8D
S1130AC0019700B4021639F01FBA20BD0FB6F8948E
S1130AD0FA9AF99A0FBE0895262FF999FECF1FBAF4
S1130AE092BD81BD20BD0FB6F894FA9AF99A0FBE53
S10B0AF001960895F894FFCF6C
S1130AF80102010102010000000E0E04041F040A91
S1130B080A4372656174652050617373776F726408
S1130B183A0050617373776F72642043726561742D
S1130B286564004372656174652050494E3A00500B
S1130B38696E2043726561746564005665726966FE
S1130B48792068756D616E00552C442C522C552CF7
S1130B584C2C5200757000646F776E006C65667477
S1130B680072696768740048756D616E2056657215
S1130B786966696564210042796520426F742100C1
S1130B88456E7465722050617373776F7264005098
S1130B98617373776F726420436F72726563744C08
S1130BA86F67696E205375636365737366756C004C
S1130BB850617373776F72642077726F6E67210068
S1130BC8456E7465722050696E00526573657420B1
S1130BD850617373776F72640057726F6E67204247
S1130BE87965210050617373776F7264205265735D
S1130BF865740057656C636F6D652020004D616BEB
S10F0C086520557365726E616D65000017
S9030000FC
