:1000000055C0000070C000006EC000006CC0000051
:100010006AC0000068C0000066C0000064C0000044
:1000200062C0000060C000005EC000005CC0000054
:100030005AC0000034C1000056C0000054C0000087
:1000400052C0000050C000004EC000004CC0000074
:100050004AC0000048C0000046C0000044C0000084
:1000600042C0000040C000003EC000003CC0000094
:100070003AC0000038C0000036C0000034C00000A4
:1000800032C0000030C000002EC00000ED01F101C0
:100090001002180252028C02A002D2020403410391
:1000A0005203C1030B042D045C04920411241FBEEF
:1000B000CFEFD0E4DEBFCDBF12E0A0E0B1E0E8EFCB
:1000C000FAE000E00BBF02C007900D92A231B10729
:1000D000D9F722E0A2E1B2E001C01D92A534B20737
:1000E000E1F748D407C58CCF8FEE88B90000309B6C
:1000F00029C0319B29C0329B29C0339B29C08FED79
:1001000088B90000309B26C0319B26C0329B26C098
:10011000339B26C08FEB88B90000309B23C0319BF6
:1001200023C0329B23C0339B23C08FE788B90000D4
:10013000309B20C0319B20C0329B20C0339B20C00D
:1001400080E0089584E4089583E2089580E30895AB
:100150008AE2089583E4089589E3089588E3089581
:1001600087E3089582E4089586E3089585E308957A
:1001700084E3089581E4089583E3089582E3089574
:1001800081E30895181619065CF0089500002150C7
:100190003109E1F74F5F5F4F8417950719F4089510
:1001A00040E050E027E033E0F1CF2E988BB92F9A52
:1001B00000002F9882E090E0E5CF089581E0F5CF30
:1001C0000895813118F48158F0CF08958155EDCF0D
:1001D000089584E690E0D6DF88E3E7DF86E0E5DF98
:1001E0008FE0E3DF81E0E1DF8AE090E0CBCF0895AC
:1001F0002E9A8BB92F9A00002F9881E090E0C2CF01
:1002000008950F931F93CF93DF93182FEB01D6DF41
:100210008881882351F001E0010F812FD2DF89917D
:10022000E7DF102F88818111F6CFDF91CF911F91E9
:100230000F91089560930501709306018093070163
:1002400090930801609333027093340280933502D7
:100250009093360208958BE0809381008DE790E0C3
:10026000909389008093880082E080936F001092C1
:100270008500109284008091050190910601A09163
:100280000701B09108018093330290933402A09348
:100290003502B09336028FB780688FBF08951F92E2
:1002A0000F920FB60F9211248F939F93AF93BF932A
:1002B0008091330290913402A0913502B0913602C0
:1002C0000197A109B1098093330290933402A0935E
:1002D0003502B0933602892B8A2B8B2B99F481E05F
:1002E000809337028091050190910601A09107014A
:1002F000B09108018093330290933402A0933502A9
:10030000B0933602BF91AF919F918F910F900FBE26
:100310000F901F901895EAE7F0E08081806E80834F
:100320000895883060F0ECE7F0E0808180838FE012
:1003300000008150E9F78FE08093120208958093C6
:100340007C00F5CFEAE7F0E08081806480838081E3
:1003500084FFFDCF08952B9A29981092260241E040
:1003600050E02A989A010090260202C0220F331F03
:100370000A94E2F7282311F0289A01C028982A9AB3
:10038000909126029F5F90932602983050F3299A0D
:1003900008950F931F93CF93DF938C01862F880FBF
:1003A000880F880F805C01DFE801085F1F4F89918B
:1003B0001FDFC017D107D9F7DF91CF911F910F91A0
:1003C0000895E0913B028E2F90E08930910508F06E
:1003D0004AC1FC01EA5BFF4F5CC381E080933B02B2
:1003E000089582DE8093390290912802943020F0A3
:1003F00082E080933B020895882371F0F9DE8091BA
:10040000280290E060913902875F9F4F65D3809109
:1004100028028F5F8093280281E080933B02089539
:1004200061E08DE090E058D383E080933B02089533
:1004300061E171E081E0E5DE57DE8093400290915A
:1004400027029430A8F062E271E081E0DADE88EF02
:1004500082DF2FEB86EC9DE2215080409040E1F757
:1004600000C0000080E077DF84E080933B020895C5
:10047000882309F4F8C081E1890FA3DE809140024E
:10048000B7DE8091270290E0609140028C5F9F4F21
:1004900023D3809127028F5F8093270283E080938C
:1004A0003B02089563E371E081E0ABDE1DDE8093E3
:1004B0003C02909129029330A8F06FE371E081E053
:1004C000A0DE88EF48DF2FEB86EC9DE221508040D4
:1004D0009040E1F700C0000080E03DDF85E08093C0
:1004E0003B020895882309F4BEC081E1890F69DECB
:1004F00080913C027DDE8091290290E060913C0277
:1005000080509040E9D2809129028F5F8093290228
:1005100084E080933B0208956BE471E081E071DE3A
:100520002FEB86EC9DE2215080409040E1F700C027
:10053000000068E571E081E064DE86E080933B02C4
:10054000D3DD80933D02833249F180E0EADEFADEBA
:1005500080917800909179009093310280933002DD
:100560008D3B22E0920750F064E671E081E049DEC5
:1005700080912D028F5F80932D020CC08E359140AB
:1005800048F467E671E081E03CDE80912C028F5FE9
:1005900080932C0287E080933B02089588E080934B
:1005A0003B020895A1DD80933D02833249F181E051
:1005B000B8DEC8DE809178009091790090932F0288
:1005C00080932E028D3B22E0920750F06CE671E0A2
:1005D00081E017DE80912B028F5F80932B020CC08D
:1005E0008E35914048F461E771E081E00ADE809148
:1005F0002A028F5F80932A0286E080933B0208954F
:1006000088E080933B02089590912D02809104012F
:1006100098131EC090912C0280910301981318C06A
:1006200090912B0280910201981312C090912A029E
:100630008091010198130CC067E771E081E0E1DD72
:1006400060E08EE090E048D289E080933B0208951C
:1006500067E771E081E0D5DD60E08EE090E03CD2BC
:1006600089E080933B020895CF93E09142028E2F60
:1006700090E08730910508F07BC1FC01E15BFF4F02
:1006800008C22FEB86EC9DE2215080409040E1F7BC
:1006900000C0000067E871E081E0B3DD81E0809395
:1006A000420266C180910001813011F51DDD809309
:1006B000430290912502943020F082E08093420220
:1006C00057C1882389F081E1890F7BDD8AE290DDC3
:1006D00080912502E82FF0E0E95EFD4F9091430202
:1006E00090838F5F8093250281E08093420240C116
:1006F000823011F5F9DC8093380290912402943015
:1007000020F082E08093420233C1882389F081E1A6
:10071000890F57DD8AE26CDD80912402E82FF0E03A
:10072000E95EFD4F9091380290838F5F80932402A1
:1007300081E0809342021CC1833009F019C1D4DCEE
:1007400080933F0290912302943020F082E08093C6
:1007500042020EC1882389F081E1890F32DD8AE2ED
:1007600047DD80912302E82FF0E0E95EFD4F909194
:100770003F0290838F5F8093230281E08093420247
:10078000F7C0C091170284E090E08CD1C8132AC052
:10079000C091180285E090E085D1C81323C0C091B4
:1007A000190286E090E07ED1C8131CC0C0911A02E5
:1007B00087E090E077D1C81315C066E971E081E069
:1007C00020DD88EFC8DD2FEB86EC9DE221508040D4
:1007D0009040E1F700C0000080E0BDDD87E080933D
:1007E0004202C6C0809100018F5F80930001843077
:1007F00038F467EB71E081E004DD10924202B8C08A
:10080000843009F0B5C067EC71E081E0FADC83E088
:1008100080934202ADC068DC809341029091220235
:10082000933020F084E080934202A2C0882389F0B4
:1008300081E1890FC6DC8AE2DBDC80912202E82FAD
:10084000F0E0ED5EFD4F9091410290838F5F8093C9
:10085000220283E0809342028BC0C091130280E0A9
:1008600090E020D1C81316C0C091140281E090E03E
:1008700019D1C8130FC0C091150282E090E012D1C7
:10088000C81308C061ED71E081E0BBDC85E08093B6
:1008900042026EC060EE71E081E0B3DC2FEB86ECCB
:1008A0009DE2215080409040E1F700C0000086DCCE
:1008B00089E0809342025CC017DC809344029091EF
:1008C00021029430A8F06BEE71E081E09ADC88EFB1
:1008D00042DD2FEB86EC9DE2215080409040E1F715
:1008E00000C0000080E037DD87E080933B0240C01D
:1008F000882309F43DC081E1890F63DC80914402C3
:1009000077DC8091210290E0609144028C5F9F4FE0
:10091000D1D0809121028F5F8093210285E0809366
:100920003B0226C080910001833030F48F5F8093BA
:100930000001109242021CC02FEB86EC9DE2215078
:1009400080409040E1F700C0000066EE71E081E079
:1009500058DC2FEB86EC9DE2215080409040E1F77F
:1009600000C000002BDC1092000187E0809342025F
:10097000CF910895CF93DF93CDB7DEB728970FB609
:10098000F894DEBF0FBECDBF80EF87B98FE088B986
:100990008FEF84B915B88AB91BB811B882B988E04D
:1009A000E9E0F1E0DE01119601900D928A95E1F700
:1009B00052DC6CE271E080E090E03CDC80E090E0B2
:1009C000CADCA9DC06DC88E3F0DB81E0EEDB86E054
:1009D000ECDB8CE0EADB8DE090E064D0182F8093B4
:1009E00020028EE090E05ED080933202113009F058
:1009F00034C0811132C06AEF71E081E002DC61E055
:100A000070E0CE010196C5DC88E8CFDB81E0F0DB49
:100A100089E090E047D00CE112E0F80180838AE0A1
:100A200090E040D0F80181838BE090E03BD0F8016A
:100A300082838CE090E036D0F80183838BE0C1DBC9
:100A4000F8018081D5DBF8018181D2DBF801828158
:100A5000CFDBF8018381CCDB04C064E072E081E08D
:100A6000D0DB81E180933E02ACDB0CE112E08091AF
:100A700037028823E1F310923702F8018481813034
:100A800031F480913202811102C0EEDDF0CF99DCA9
:100A9000EECFEE0FFF1F0024001C0BBE0790F69157
:100AA000E02D0994F999FECF92BD81BDF89A99275E
:100AB00080B50895262FF999FECF92BD81BDF89A91
:100AC000019700B4021639F01FBA20BD0FB6F89492
:100AD000FA9AF99A0FBE0895262FF999FECF1FBAF8
:100AE00092BD81BD20BD0FB6F894FA9AF99A0FBE57
:080AF00001960895F894FFCF70
:100AF8000102010102010000000E0E04041F040A95
:100B08000A4372656174652050617373776F72640C
:100B18003A0050617373776F726420437265617431
:100B28006564004372656174652050494E3A00500F
:100B3800696E204372656174656400566572696602
:100B4800792068756D616E00552C442C522C552CFB
:100B58004C2C5200757000646F776E006C6566747B
:100B68000072696768740048756D616E2056657219
:100B780069666965642100456E7465722050617309
:100B880073776F72640050617373776F7264204378
:100B98006F72726563744C6F67696E205375636317
:100BA80065737366756C0050617373776F72642038
:100BB80077726F6E672100456E7465722050696E9A
:100BC8000052657365742050617373776F726400A7
:100BD80057726F6E67204279652100506173737791
:100BE8006F72642052657365740057656C636F6D2E
:100BF800652020004D616B6520557365726E616DCF
:020C0800650085
:00000001FF
