S01E0000737169616E3030335F637573746F6D70726F6A6563742E7372656366
S113000045C0000060C000005EC000005CC000008D
S11300105AC0000058C0000056C0000054C0000080
S113002052C0000050C000004EC000004CC0000090
S11300304AC0000024C1000046C0000044C00000C3
S113004042C0000040C000003EC000003CC00000B0
S11300503AC0000038C0000036C0000034C00000C0
S113006032C0000030C000002EC000002CC00000D0
S11300702AC0000028C0000026C0000024C00000E0
S113008022C0000020C000001EC0000011241FBEBA
S1130090CFEFD0E4DEBFCDBF11E0A0E0B1E0E6EAEF
S11300A0F4E000E00BBF02C007900D92A632B10746
S11300B0D9F721E0A6E2B1E001C01D92A533B20751
S11300C0E1F761D1EEC19CCF8FEE88B90000309B7F
S11300D029C0319B29C0329B29C0339B29C08FED95
S11300E088B90000309B26C0319B26C0329B26C0B5
S11300F0339B26C08FEB88B90000309B23C0319B13
S113010023C0329B23C0339B23C08FE788B90000F0
S1130110309B20C0319B20C0329B20C0339B20C029
S113012080E0089584E4089583E2089580E30895C7
S11301308AE2089583E4089589E3089588E308959D
S113014087E3089582E4089586E3089585E3089596
S113015084E3089581E4089583E3089582E3089590
S113016081E30895181619065CF0089500002150E3
S11301703109E1F74F5F5F4F8417950719F408952C
S113018040E050E027E033E0F1CF10988BB9119AAA
S11301900000119882E090E0E5CF089581E0F5CF6A
S11301A00895813118F48158F0CF08958155EDCF29
S11301B0089584E690E0D6DF88E3E7DF86E0E5DFB4
S11301C08FE0E3DF81E0E1DF8AE090E0CBCF0895C8
S11301D0109A8BB9119A0000119881E090E0C2CF77
S11301E008950F931F93CF93DF93182FEB01D6DF5E
S11301F08881882351F001E0010F812FD2DF89919A
S1130200E7DF102F88818111F6CFDF91CF911F9105
S11302100F9108956093000170930101809302018E
S11302209093030160932C0170932D0180932E0110
S113023090932F0108958BE0809381008DE790E0E7
S1130240909389008093880082E080936F001092DD
S11302508500109284008091000190910101A09189
S11302600201B091030180932C0190932D01A0937E
S11302702E01B0932F018FB780688FBF08951F920E
S11302800F920FB60F9211248F939F93AF93BF9346
S113029080912C0190912D01A0912E01B0912F01FC
S11302A00197A109B10980932C0190932D01A0938A
S11302B02E01B0932F01892B8A2B8B2B99F481E08B
S11302C0809330018091000190910101A09102017D
S11302D0B091030180932C0190932D01A0932E01E2
S11302E0B0932F01BF91AF919F918F910F900FBE4B
S11302F00F901F9018950F931F93CF93DF938C014A
S1130300862F880F880F880F805C3FDFE801085F25
S11303101F4F89915DDFC017D107D9F7DF91CF91C6
S11303201F910F91089580913301813041F018F0AD
S1130330823021F1089581E0809333010895C4DE71
S11303408093310190912B01943020F082E08093CE
S113035033010895882371F03BDF80912B0190E0F5
S1130360609131018B5F9F4F8ED080912B018F5F05
S113037080932B0181E080933301089561E089E04B
S113038090E081C00895CF93DF93CDB7DEB728976F
S11303900FB6F894DEBF0FBECDBF80EF87B98FE0F4
S11303A088B98FEF81B912B88AB91BB888E0E4E044
S11303B0F1E0DE01119601900D928A95E1F73BDFA1
S11303C06CE271E080E090E025DFF3DE88E3DDDEBF
S11303D081E0DBDE86E0D9DE8CE0D7DE89E090E0E8
S11303E04AD080932A0180910900811105C06CE0F4
S11303F071E081E0F6DE31C06BE171E081E0F1DEB5
S113040061E070E0CE01019676DF88E8BEDE81E02F
S1130410DFDE85E090E02FD006E211E0F801808372
S113042086E090E028D0F801818387E090E023D033
S1130430F801828388E090E01ED0F80183838BE08A
S1130440B0DEF8018081C4DEF8018181C1DEF801EB
S11304508281BEDEF8018381BBDE1092330181E12B
S1130460809334019EDE809130018823E1F3109261
S1130470300159DFF8CFF999FECF92BD81BDF89ACA
S1130480992780B50895262FF999FECF1FBA92BDFA
S113049081BD20BD0FB6F894FA9AF99A0FBE019661
S10904A00895F894FFCF5B
S11304A6010000000E0E04041F040A0A456E74655A
S11304B67220557365726E616D650057656C636F66
S10904C66D65202000001A
S9030000FC
